:020000041000EA
:1000000000B5324B212058609868022188439860DF
:10001000D860186158612E4B002199600221596106
:100020000121F02299502B49196001219960352056
:1000300000F044F80222904214D00621196600F024
:1000400034F8196E01211966002018661A6600F04E
:100050002CF8196E196E196E052000F02FF8012189
:100060000842F9D1002199601B49196000215960AB
:100070001A491B48016001219960EB211966A021F2
:10008000196600F012F800219960164914480160C1
:100090000121996001BC002800D000471248134993
:1000A000086003C880F30888084703B5996A0420EC
:1000B0000142FBD001200142F8D103BD02B5186610
:1000C0001866FFF7F2FF186E186E02BD00000240BE
:1000D000000000180000070000035F00212200005C
:1000E000F4000018222000A00001001008ED00E03C
:1000F00000000000000000000000000074B24E7A12
:1001000000200420F7010010C3010010C5010010F9
:10011000C1010010C1010010C1010010C101001097
:10012000C1010010C1010010C1010010C701001081
:10013000C1010010C1010010C9010010CB01001065
:10014000CD010010CD010010CD010010CD01001037
:10015000CD010010CD010010CD010010CD01001027
:10016000CD010010CD010010CD010010CD01001017
:10017000CD010010CD010010CD010010CD01001007
:10018000CD010010CD010010CD010010CD010010F7
:10019000CD010010CD010010CD010010CD010010E7
:1001A000CD010010CD010010CD010010CD010010D7
:1001B000CD010010CD010010CD010010CD010010C7
:1001C00000BE00BE00BE00BE00BE00BEEFF3058054
:1001D000103800BEF2EB88711C6501103C650110FF
:1001E0003402001090A31AE700201F49086006C8D7
:1001F00081F3088810471D48006800282FD10DA4FE
:100200000ECC002902D000F012F8F9E71849194A7B
:10021000002000E001C19142FCD1174988471749ED
:1002200088471749884700BEFDE701C901C29A42C5
:10023000FBD370473C650110C00000204C18002023
:10024000C87C01100000042000000420C87C0110BC
:10025000001004200010042000000000704709482E
:1002600005F004F90047000008ED00E0000000D0B0
:100270005018002030270020C541001061030010F5
:10028000814100105756000006005250ABB3605336
:10029000E051011006005250861C0302F05101107B
:1002A000060052505422A29DF851011005005250F0
:1002B000DE65F468C87C0110F8B5C04610B5064C80
:1002C0002378002B07D1054B002B02D0044800E017
:1002D00000BF0123237010BD58190020000000004A
:1002E00068290110044B10B5002B03D003490448C2
:1002F00000E000BF10BDC046000000005C190020F7
:1003000068290110F8B506000F00002500E001354E
:10031000AB000A4A9C58002C0FD030000AF0E4FAD7
:100320000200210030000AF035FB0028EFD1002246
:100330002100380000F02EFAE9E7F8BDDC290110B1
:1003400010B5020043011B1A98008018C00006F087
:1003500001FBFF23184010BD10B506F0DBFA10BDFD
:1003600010B506F0D3FA084800F0CEF903E00749CB
:10037000074806F0BFFA14220449064801F0A6FF18
:100380000028F4D1002010BD0503001074190020CE
:100390006C2901106829011001E003700130037815
:1003A000002B07D0044AD15C03220A40012AF4D171
:1003B0002033F2E77047C04661590110144B984250
:1003C0001DD00FDC134B98421BD004DD124B98421A
:1003D00007D1124805E0082815D0114B984200D1EA
:1003E00010487047104B98420FD0104B984201D1E3
:1003F0000F48F6E70F4B9842F3D10F48F1E70F484B
:10040000EFE70F48EDE70F48EBE70F48E9E7C04695
:10041000441B0000421B0000431B0000431B313300
:10042000411B0000411B31337E1B33007E1B340017
:10043000461B31337E1B3100481B3133441B3133A3
:10044000421B31337F1C00007E1B33331C4B984210
:1004500027D00BDD1B4B98422BD01ADD1A4B98424C
:100460002BD01A4B984213D1194811E0194B9842DE
:1004700019D007DD184B984219D0184B984207D174
:10048000174805E07F2810D0164B984200D1164837
:100490007047164B98420ED0154B9842F8D115482C
:1004A000F6E71548F4E71548F2E70820F0E71448A6
:1004B000EEE71448ECE71448EAE71448E8E7C046DA
:1004C000431B4F00421B5B00431B5B00441B5B0054
:1004D000531B4F00481B0000411B4F00421B4F00A5
:1004E000421B3135461B00007E1B3400441B4F006D
:1004F000411B5B00501B4F00431B31357E1B3100FD
:10050000411B3135511B4F00441B3135521B4F00ED
:1005100010B5002808D05B2809D04F2838D0E02338
:100520005B01C418200010BDFFF716FFF3E7FFF7CB
:1005300013FF04000300303B062B06D95B2822D0B2
:10054000D8235B019C466444ECE7FFF705FF7E2857
:1005500012D03B28E6D1FFF7FFFE352801D0332823
:100560001BD12404D8235B019C4664440006241854
:10057000FFF7F2FE2418D5E72404D822520194464E
:1005800064442418CEE7FFF7E7FE054BC418C9E71B
:10059000FFF7E2FE034BC418C4E70024C2E7C046DD
:1005A000001B5B00001B4F0010B50400FFF7D4FEDA
:1005B0001B2800D010BD01232360FFF7CDFE1B28B0
:1005C00002D0FFF7A5FFF5E70020FFF7A1FFFFF737
:1005D0003DFFFFF7F3FEEDE7F8B50E00150000282C
:1005E00002D100243FE001300378202BFBD000240F
:1005F00010E04278222A16D1222B01D02D234370FD
:100600000130671CA400305122210AF0C9F80028EB
:1006100018D13C00AC4228DA00281BD00378222BEA
:10062000EAD02D2BE5D0671CA400305120210AF020
:10063000B7F80028EDD00023037001300378202B99
:10064000FBD0E6E70023037001300378202BE0D1D4
:100650000130FAE7002504E0AB00F058FFF79CFEFC
:100660000135A542F8DB2000F8BD0025F9E770B59B
:1006700004009B1A1D00132B00DD1325002B00DC4A
:1006800070BD89182A00200005F05CFF6419002362
:100690002370F5E770B586B00E00150001AC13228B
:1006A000010020000AF0B0F90023E3742000FFF7F6
:1006B00073FE002406E0013101A80AF01FFB0028A8
:1006C00011D10134AC420BDAA30099590B782D2BD0
:1006D000F1D001A80AF012FB0028F2D1002000E0BE
:1006E000012006B070BD0020FBE7000010B5C82255
:1006F0000021034805F020FF024B00221A6010BDC4
:1007000020240020E8240020014B18607047C046D8
:100710001824002070B5040015001E00002804D025
:10072000002902D00368132B00DD70BD9800C018AB
:1007300080002018043014220AF066F92268930021
:100740009B189B00E3180020D8751100CE3189005A
:100750000D519533FF331870002E17D0900080187C
:1007600080009130FF3020180430142231000AF04C
:100770004BF9226893009B189B00E318A833FF33C2
:1007800000211970E2329200049B13512368013357
:100790002360CAE700B583B0130000220092FFF780
:1007A000B9FF03B000BD000010B5034806F0A2F881
:1007B000024806F09FF810BD0C2A0110142A0110FF
:1007C00070B588B006000D00184806F093F8184B75
:1007D0001B68986808F09AFD00241E2C0BDC64202E
:1007E000FFF7AEFDC0B26B461855002817D052284F
:1007F00001D00134F1E700236A4613552B00320083
:100800000C49684609F030FF02280BD13368013BE0
:1008100033602B68013B2B60002008B070BD0120C5
:100820004042FAE701204042F7E7C0461C2A011087
:10083000700E0020242A011010B54A1C411C0448E7
:1008400006F058F8034B1B68986808F05FFD10BD70
:10085000302A0110700E002070B504000D001348FE
:1008600006F048F8124B1B68986808F04FFD1148D5
:100870000100FFF7E1FF29002000FFF7A1FF00289A
:100880000ED12368013323602B6801332B600A48A3
:1008900006F030F8064B1B68986808F037FD70BD0D
:1008A00050232B60383B2360F1E7C0463C2A0110FF
:1008B000700E0020E7030000402A011030B583B01D
:1008C00004002D4B1B68002B04DB00200BF066FF9F
:1008D000002802D1002003B030BD01200BF05EFFE4
:1008E0000028F7D0694601A8FFF7B6FF009B18194A
:1008F0000138190004F0E6FD1F4B1A689446604465
:100900001860019B013B984201DA0020E3E71B4994
:100910001B4805F0EFFFFFF71FFD051E01D0002467
:1009200006E0FFF719FDFAE7082005F04DFF013456
:100930002D2CF9DD002403E0202005F045FF0134D3
:100940002D2CF9DD002403E0082005F03DFF0134E3
:100950002D2CF9DD084B00221A60202D05D00D2D1D
:1009600005D00A2D05D10020B5E70020B3E700200F
:10097000B1E70120AFE7C046EC240020442A011073
:10098000742A011070B5002805D00C4E0C4805F0F3
:1009900081FF002502E00B4EF8E70135AC00341969
:1009A0002068002809D005F075FF206809F09CFF39
:1009B0000130FFF783FF0028EFD070BD300D00201D
:1009C000782A0110F80B0020F0B5DE4657464E4657
:1009D0004546E0B593B001908B469146984610226B
:1009E00002A94846FFF7F8FD8246284B1D680027FC
:1009F00019E05B46002B41D0013733003A0024490F
:100A0000019808F0EBFD1C9B002B0BD0300009F087
:100A10006BFF5B46002B37D00723C018FFF74EFF54
:100A2000002823D10135194B1B680A33AB421DD96D
:100A30000A21280004F06EFD0C008B005B189B005F
:100A4000144A9E18D35C002BECD04B46002B06D0EA
:100A5000524602A93000FFF71DFE0028E2D04346AF
:100A6000002BC6DD0137B845DCD1671C380013B058
:100A7000F0BCBB46B246A946A046F0BD32000649CE
:100A8000019808F0ABFDBEE70123C6E7E82400208B
:100A90007C2A0110202400209C2D011010B582B06A
:100AA000074B1B689C6800200BF078FE0090002329
:100AB000002201212000FFF787FF02B010BDC046D1
:100AC000700E002010B50400002904DC07DB002CA8
:100AD0000ADC0EDB10BD094805F00CFFF7E74942C0
:100AE000074805F007FFF2E72100064805F002FF7E
:100AF000F0E76142044805F0FDFEEBE7882A0110AB
:100B0000902A0110982A0110A02A0110F0B5D646AB
:100B10004F464646C0B582B00C0016001F0009F0D3
:100B2000E3FE050023689846694601A8FFF794FE96
:100B30000A9B002B03D12368326893424FD0002FC9
:100B40002CDB27687819009B9A46190004F0BAFC40
:100B5000814633685819514604F0B4FC814540D0B1
:100B60005744276033689F4201DD013B23602068C2
:100B70004019009E310004F0A5FC0C002800404400
:100B8000310004F09FFC611A0120FFF79BFF012058
:100B900002B0E0BCBA46B146A846F0BD266870195E
:100BA000009F390004F08EFC0028F1D0F61B26606F
:100BB00012D420684019009E310004F083FC0C0020
:100BC00028004044310004F07DFC611A01204042BD
:100BD000FFF778FF0120DBE700232360E9E70A98AD
:100BE000D6E70020D4E7000010B5040001200BF088
:100BF000D5FD002800D110BD154805F07BFE7F23F0
:100C00001900214023420AD001331A002240234216
:100C100000D03C2289181D310E4805F06BFEFE23E2
:100C2000DB011C420ED0230A7F21194080231B02C6
:100C300022001A401C4200D03C2289182731054866
:100C400005F058FEE303D6D5034805F053FED2E77E
:100C5000A82A0110AC2A0110B42A0110F0B5DE4612
:100C600057464E464546E0B585B08246C9239B00AF
:100C7000C35C002B02D10368002B14DD764805F01D
:100C800009FE01230193C9239B005246D35C002B2C
:100C90000CD153461D68002D00D1D1E000230093F4
:100CA0009846002419E000230193ECE76B4805F017
:100CB00021FEF6239B005246D058FFF795FFC9212D
:100CC00089005144664805F015FE0020FFF78CFFAF
:100CD0000A2005F079FDDCE70134A54215DDA0000E
:100CE000001980005044043009F0FEFD404500DD4D
:100CF0008046A3001B199B0053449533FF331B7898
:100D0000002BE9D001230093E6E7009B002B46D09F
:100D1000002622E03300E2339B0052469858FFF74A
:100D200063FFB400A419A4009134FF345444043484
:100D300021004B4805F0DEFD0020FFF755FF0A209B
:100D400005F042FD200009F0CFFD043040440130A1
:100D5000FFF7B4FD002873D1013653461B68B34238
:100D60006EDD3300CE339B0052469858FFF73CFFB0
:100D7000B500AD19AD00554404352900384805F0DB
:100D8000B9FD0024280009F0AFFD4346181A0430CD
:100D9000A042BFDD202005F017FD0134F2E702A9D3
:100DA00003A8FFF759FD029B581E4346C01A191DA0
:100DB00004F088FB431C9B460123994618E00C0075
:100DC0004444380009F090FD241AB4420BDD202081
:100DD00005F0FAFC01365946484604F073FB0D1E37
:100DE000EDD00424ECE7002D1CD001239C46E14407
:100DF0005346186848451EDB4B465C1ECD339B00AE
:100E000052469858FFF7F0FEA7003F19BF0057441D
:100E100004373900124805F06DFD0020FFF7E4FEAD
:100E2000009ED8E70A2005F0CFFC4046FFF746FDBC
:100E30000028DAD004E0594604F044FB002907D129
:100E4000019805B0F0BCBB46B246A946A046F0BD2D
:100E50000A2005F0B9FCF3E7782A0110BC2A01103A
:100E6000742A0110F0B5D6464F464646C0B58246B4
:100E7000894690461F00099E0A9C09F035FD050031
:100E8000002C03D1574B1B68002B03D15649554802
:100E9000FFF7E2FC002C17D04B469B1900221A707A
:100EA000012C35DD013C21004944504805F022FD6C
:100EB000002E06DDA8194C4B196804F003FB00292D
:100EC00041D03B689C1B46E0089B9A46AA44464B8F
:100ED0001C682100504604F0F5FA814643461B6821
:100EE0009C4665442100280004F0ECFA4B461B1A8E
:100EF00099462100504604F0E5FA8A462100280070
:100F000004F0E0FA5346591A4846FFF7DBFD58E073
:100F100043461B685819344B196804F0D3FA404211
:100F20000021FFF7CFFD324B1868FFF75DFE5146F9
:100F3000304805F0DFFC0020FFF756FE49462B48FD
:100F400005F0D8FCB4E70A2005F03EFCB9E7202004
:100F500005F03AFC013C002CF9DC3868B04206DDB3
:100F60004019214B196804F0ADFA002932D0AB19B1
:100F700099461D4B1B689A461900484604F0A2FA90
:100F800004003B685819514604F09CFA201A25D4F5
:100F90000D2005F019FC089B9A46AA44124B1D68C7
:100FA0002900504604F08EFA04002900484604F057
:100FB00089FA241A2900504604F084FA2000FFF729
:100FC00081FD4346089A1A603E60E0BCBA46B146CD
:100FD000A846F0BD0A2005F0F7FBC8E70021FFF79F
:100FE00071FDD5E7002400202C1F0020742A011079
:100FF000F0240020CC2A0110F0B585B006000D00C9
:1010000014001F000A210B9804F05CFA0B00890001
:10101000C91889000C4BC918013C2200280009F0AE
:10102000F3FC2C1900232370280009F05DFC012338
:101030000293019000900A9B3A0029003000FFF7CC
:1010400011FF05B0F0BDC0462024002010B584B0CB
:1010500000241C60146001340294079C0194069CD7
:101060000094FFF7FFFE04B010BD0000F0B5DE46AF
:1010700057464E464546E0B5D04CA544040006917F
:1010800016000022FFA920310A60FFA91C310A6066
:10109000CB4A12680592002E1BD0002B1BD10023D7
:1010A000FFAA043213702370FFAB1C331B6801933B
:1010B000FFAB20331B680093FFAB1C33FFAA203229
:1010C00021003000FFF7C2FF00230793002700F044
:1010D00046FDBC4EE1E7200009F006FC0200FFAB34
:1010E00020331860FFAB1C33186003002100FFA8F9
:1010F0000430FFF7BCFAD7E7FFAB20331B689946F3
:10110000002398460293FFAB1C331B6801934346B0
:101110000093FFAB1C33FFAA203221003000FFF701
:10112000A1FEA94805F0E6FB01230293FFAB1C33A7
:101130001B6801934B460093FFAB1C33FFAA203280
:1011400021003000FFF78EFEA04B42461A6000F0EF
:1011500016FD9F4BEB18432B00D96BE19B009D4A7A
:10116000D3589F469C4B9D4201D100F0B2FE20DD3A
:101170009A4B9D4200D1EAE1994B9D4200D059E142
:10118000FFAB20331B68002B01DC00F0E0FC0022E9
:101190000292FFAA1C3212680192013B0093FFAB3E
:1011A0001C33FFAA203221003000FFF75BFE00F065
:1011B000CEFC8C4B9D4200D03CE1012300220092EA
:1011C0005B42FFAA1C32FFA920313000FFF79EFCD2
:1011D000002801D000F0BBFCFFAB4C331B68002B98
:1011E00001D000F0B4FC079B002B01D100F064FE9D
:1011F0000599002901D100F0AAFC714B1A680B0077
:101200000A33934201D800F0A2FC0B3B05930193F3
:10121000FFAB1C330093FFAB2033069A2100300054
:10122000FFF7EAFE00F093FC6F4B9D4201D100F006
:1012300020FF16DD6D4B9D4200D144E100DCF3E060
:101240006B4B9D4200DD3BE16A4B9D4200DAF1E0D1
:10125000694BEB18072B00D9ECE09B00674AD35889
:101260009F46674B9D4201D100F091FE2BDD654BFF
:101270009D4200D12FE1644B9D4200D0DAE0FFABEC
:101280004C331B68002B01D000F061FC4C4B1B68F9
:10129000002B01D100F05BFC5C4805F0FBFAFFF786
:1012A000FDFBFFAB1C331B680193FFAB20331B68B6
:1012B0000093FFAB1C33FFAA203221003000FFF760
:1012C000C5FE00F044FC524B9D4200D110E22BDDE4
:1012D000504B9D4200D1AEE14F4B9D4200D0A9E062
:1012E000FFAB4C331B68002B01D000F030FC079B98
:1012F000002B01D100F03EFE314B1B68002B01D1C9
:1013000000F025FC0A2B00D20A230A3B0593019327
:10131000FFAB1C330093FFAB2033069A2100300053
:10132000FFF76AFE00F013FC3C4B9D4210D10023F6
:101330000293FFAA1C32126801920093FFAB1C3388
:10134000FFAA203221003000FFF78CFD00F0FFFBE8
:10135000334B9D426ED1334809F0C6FA0500FFAB0E
:101360001C331A68131806998B4200DBEFE3FFABBE
:1013700020331B6818182018E118D21A08F0A6FEAE
:10138000FFAB20331B68E0182A00264905F0DAF885
:1013900001230293FFAB1C331B68EB180193FFABD7
:1013A00020331B689C4665440095FFAB1C33FFAAA5
:1013B000203221003000FFF755FDC8E3DCFBFFFFC2
:1013C000E82400207C290110D02A01101C240020D0
:1013D000C4E3FFFF682B0110421B0000431B000009
:1013E000441B0000411B0000521B4F007E1B333387
:1013F000481B3135411B3135BFE4CECA782C011072
:101400007E1B3600501B4F00511B4F00782A0110E5
:101410007E1B33007E1B34007E1B35007E1B31009B
:101420007E1B320004240020D34B9D4201D100F0EA
:10143000E1FD37DAFFAB18331B689846002B00D06C
:1014400085E3CE4B5B5D6822934300D17FE3069B2F
:10145000013BFFAA1C321268934200DC77E3FFAB2A
:1014600020331B68581C2018E118D21A08F02EFEF1
:10147000FFAB20331B68E554FFAB20331B680133FF
:101480000293FFAA1C321268013201920093FFAB53
:101490001C33FFAA203221003000FFF7E3FC434653
:1014A000079354E3B64B9D42C4DCB64B9D42C1DB6F
:1014B000B54BEB18072BBDD89B00B44AD3589F46B9
:1014C000B34B9D42B6D1FFAB20331B6899461D003C
:1014D000B0462600EEE3FFAB4C331868FFF752FA34
:1014E000FFAB1C331B680193FFAB20331B680093D9
:1014F000FFAB1C33FFAA203221003000FFF7A6FD0E
:1015000025E3A44805F0C6F904E020230A00A24818
:1015100005F0F0F9FEF720FF0100032806D0974BF5
:101520005B5C68229343F0D00B00EFE7FFAB1C330A
:101530001B680193FFAB20331B680093FFAB1C3388
:10154000FFAA203221003000FFF780FDFFE2FFAB51
:1015500020331B68FFAA1C321268934200DBF6E2BC
:1015600000210291019201330093FFAB1C33FFAACB
:10157000203221003000FFF775FCE8E2FFAB20339A
:101580001B685D1E00E0013D002D07DD615D8348A5
:1015900009F006F90028F6D100E0013D002D05DD37
:1015A000615D7E4809F0FCF80028F6D0002D00D0DF
:1015B000013500230293FFAB1C331B680193009598
:1015C000FFAB1C33FFAA203221003000FFF74AFC9A
:1015D000BDE2FFAB20331D68B046260000E00135B8
:1015E000FFAB1C331C68AC420BDD715D6B4809F02E
:1015F000D7F80028F3D14346A0464446984600E079
:101600000135AC4205DD715D644809F0C9F8002878
:10161000F6D04346A04634001E0000230293434602
:1016200001930095FFAB1C33FFAA2032210030004C
:10163000FFF718FC8BE2FFAB1C331B680022029201
:1016400001930093FFAB1C33FFAA2032210030002E
:10165000FFF708FC7BE2FFF7A7F8FFAB1C331B6822
:101660000193FFAB20331B680093FFAB1C33FFAA31
:10167000203221003000FFF7E9FC68E2012301225B
:1016800000925B42FFAA1C32FFA920313000FFF715
:101690003DFA5CE201230093FFAA1C32FFA920312E
:1016A0003000FFF733FA52E2FFAB20331A68002A0A
:1016B00000DC4CE2501E2018A118FFAB1C331B6845
:1016C0009A1A08F003FD01230293FFAB1C331B6839
:1016D000013B0193FFAB20331B68013B0093FFAB41
:1016E0001C33FFAA203221003000FFF7BBFB2EE2A3
:1016F000FFAB20331A68FFAB1C331B689A420BDB2D
:10170000002B00D023E2042D00D020E2244805F075
:10171000C1F801277F421AE2A018511C61189A1AD9
:10172000013A08F0D3FC01230293FFAB1C331B6882
:10173000013B0193FFAB20331B680093FFAB1C33CD
:10174000FFAA203221003000FFF78CFBFFE1FFAB46
:1017500020331D6800E00135FFAB1C331B68AB4232
:101760003CDD615D0D4809F01BF80028F3D1B94656
:101770002700B34619E0C046531B4F0061590110C2
:10178000481B3133411B3133BFE4CECC982C0110C0
:101790007E1B3335D42A01100C2B01105C0D002068
:1017A000782A011043461E700135FFAB1C331B68BD
:1017B0009A46AB4216DD7B1998467C5D26002100D7
:1017C000D54808F0EDFF00280CD1D44B1A5D032357
:1017D0001340022BE6D1203C2600E3E7B946270060
:1017E000B346E2E73C004F465E4601230293534670
:1017F00001930095FFAB1C33FFAA2032210058460D
:10180000FFF730FBA3E1FFAB20331D6800E001359B
:10181000FFAB1C331B68AB4225DD615DBE4808F0A1
:10182000BFFF0028F3D1B9462700B34602E0434684
:101830001E700135FFAB1C331B689A46AB4216DDA8
:101840007B1998467C5D26002100B34808F0A8FF6C
:1018500000280CD1B14B1A5D03231340012BE6D1B4
:1018600020342600E3E7B9462700B346E2E73C0010
:101870004F465E4601230293534601930095FFAB0A
:101880001C33FFAA203221005846FFF7EBFA5EE135
:10189000FFAB20331D68B046260000E00135FFABEA
:1018A0001C331C68AC4205DD715D9B4808F078FF75
:1018B0000028F3D14346A04634001E00A8452BDD86
:1018C0006119635D954AD05C03220240022A03D06D
:1018D0000B70B046260002E0203BF9E70135FFAB74
:1018E0001C331C68AC4205DD715D8B4808F058FF65
:1018F0000028F3D04346A04634001E000123029383
:10190000434601930095FFAB1C33FFAA2032210010
:101910003000FFF7A7FA1AE198462600DFE7FFAB91
:1019200020331A68150000E0013D002D02DD635DE3
:10193000202BF9D06019A118FFAB1C331B689A1A31
:1019400008F0C4FBFFAB20331B685B1B0122029233
:10195000FFAA1C321268D31A01930095FFAB1C3307
:10196000FFAA203221003000FFF77CFAFFAB2033C2
:101970001868050000E00135FFAB1C331A68AA4265
:1019800002DD635D202BF6D020186119521B08F090
:101990009DFBFFAB20331B68ED1A01220292FFAAC8
:1019A0001C321268551B01950093FFAB1C33FFAA34
:1019B000203221003000FFF755FAC8E0FFAB20339A
:1019C0001D68002D09DD63199946635D984619006D
:1019D000514808F0E5FE002833D0012D00DCB6E0C8
:1019E0006B1EE2189146E35C984619004A4808F0DD
:1019F000D7FE002800D0AAE06519023D2D78290005
:101A0000454808F0CDFE002800D0A0E04B461D70F0
:101A1000FFAB20331B68023B4246E2540123029392
:101A2000FFAB1C331B680193FFAB20331B68009393
:101A3000FFAB1C33FFAA203221003000FFF712FA5F
:101A400085E04B46013B1B789A461900324808F066
:101A5000A7FE0028C1D14B4652461A70FFAB203377
:101A60001B68013B4246E254FFAB20331B68FFAAD0
:101A70001C321268934200DA013301210291019273
:101A80000093FFAB1C33FFAA203221003000FFF788
:101A9000E9F95CE0FFAB1C331B68FFAA2032126837
:101AA00021001F48FEF7E3FDFFAB20331B68012236
:101AB000029201930093FFAB1C33FFAA2032210056
:101AC0003000FFF7CFF942E0FFAB20331B68002264
:101AD00021001348FEF7CBFDFFAB20331A68A11895
:101AE000FFAB1C331B689A1A200008F0EFFA0123A1
:101AF0000293FFAB1C33FFAA20321B6812689B1AAB
:101B0000019300230093FFAB1C33FFAA2032210076
:101B10003000FFF7A7F91AE05C0D002061590110B1
:101B200004240020FFAB1C331B6800222100CC489A
:101B3000FEF79DFD01230293002301930093FFAB69
:101B40001C33FFAA203221003000FFF78BF9C54B70
:101B50001B68986807F0DAFB002F00D0ECE2002346
:101B6000FFAA183213601000FEF71EFDFEF76EFC90
:101B70000500BD4B1B68002B01D0FFF7BDFAE42325
:101B80005B019D4201DBFFF74FFBB84B9D4201DB40
:101B9000FFF7DFFA1F2D01DDFFF7E4FA002D00DC6F
:101BA00048E41F2D00D945E4AB00B14AD3589F4605
:101BB000FFAB20331B689946012B21DDE318013B65
:101BC0001978AC4808F0ECFD00281ED001235B42D8
:101BD0004B44984623004446A8461D0000E0013CC3
:101BE000002C05DD295DA34808F0DAFD0028F6D1B8
:101BF0002B004546A0461C00172D0BD0454614E08F
:101C000023004C46A8461D00EAE723004C46A846A0
:101C10001D00E5E7434600E0013B002B0FDDE25CE1
:101C2000202AF9D198460DE0013D002D09DD615DC6
:101C3000904808F0B5FD0028F6D0A84602E0984686
:101C400000E0A8464346002B0ADDC84508DAE15CFF
:101C5000884808F0A5FD002802D001239C46E044F6
:101C60004B46424621007E48FEF701FD4346E01800
:101C7000FFAB20331A68A118FFAB1C331B689A1AFC
:101C800008F024FAFFAB20331B6842469B1A01225E
:101C90000292FFAA1C321268D31A019343460093A2
:101CA000FFAB1C33FFAA203221003000FFF7DAF827
:101CB0004DE70135FFAB1C331C68AC420BDD715D99
:101CC0006C4808F06DFD0028F3D14346A046444619
:101CD000984600E00135AC4205DD715D654808F0CD
:101CE0005FFD0028F6D0340046462B004A4621000E
:101CF0005B48FEF7BCFCFFAB20331B68E0186119A2
:101D0000FFAB1C331B685A1B08F0E0F9FFAB203314
:101D10001B68ED1A01220292FFAA1C321268551BA1
:101D200001950093FFAB1C33FFAA203221004046EF
:101D3000FFF798F80BE7FFAB4C331B68002B00D084
:101D400005E74D4B1B68002B00D100E7FFAA2032AE
:101D50001268FFA91C3109688A4200D0F7E6A21870
:101D600000211170099109A8C92292008154010033
:101D700020009847099B9A46002B01DD092D1CD0B5
:101D8000099B012B02D1092D00D1E0E609A8FEF73D
:101D900065FF002800D1DAE6FFAB1C331B68019316
:101DA000FFAB20331B680093FFAB1C33FFAA20322C
:101DB00021003000FFF74AF9C9E60AA808F094FDAF
:101DC00083460123994623000400A8464D469946C0
:101DD00010E0013C002C0CDDA9004919890009AB79
:101DE0009C466144043122000AA808F0ABFD00289B
:101DF000EFD10135AA4501DD002CEBDC4B46A946AD
:101E00004546A0461C004346002BB9DDFFAB1C3302
:101E10001B689A465B451FDB23005C469B4600E03F
:101E2000013C002C08DD5346191B594422000AA826
:101E300008F088FD0028F3D15B46A3461C005346FA
:101E40005A469A1A4B469B18013306998B4297DAE9
:101E5000FFAB4C331B6817E0230054469B46E0E77A
:101E600004240020700E00201C2400203C1C0000D4
:101E7000B82C01105C0D002018240020981809A926
:101E8000C9180979215401339845F7DC09990129CA
:101E90000DD09B180122029201930093FFAB1C33DB
:101EA000FFAA203221003000FEF7DCFF68E7991816
:101EB000202060540133ECE7FFAB1C331B68002289
:101EC0002100FFA80430FEF7D2FB01230793FFF7A0
:101ED0008FF9002300930133FFAA1C32FFA92031A0
:101EE0003000FEF713FE002800D030E6FFAB4C3385
:101EF0001B68002B00D02AE6079B002B13D0059D02
:101F00000135BC4B1B6805939D4218D20195FFAB70
:101F10001C330093FFAB2033069A21003000FFF7FB
:101F20006BF8059513E6FFAB1C331B6800222100FC
:101F3000FFA80430FEF79BFB01230793DFE7069B16
:101F40005D1E2A00FFA90431200008F05DFD65191F
:101F500000232B70200008F0C7FC0123029301909E
:101F60000090FFAB1C33FFAA203221003000FEF7A7
:101F700079FFECE5FFAB1C331B6800222100FFA8B2
:101F80000430FEF774FB01230793FFF7B5F9FFABAD
:101F90004C331B68002B00D0D9E5079B002B1DD0CC
:101FA000944B1B680593069B5D1E2A00FFA9043114
:101FB000200008F029FD651900232B70200008F08F
:101FC00093FC0123029301900090FFAB1C33FFAA06
:101FD000203221003000FEF745FFB8E5FFAB1C338F
:101FE0001B6800222100FFA80430FEF740FB0123FC
:101FF0000793D5E7FFAB4C331B68002B00D0A6E559
:10200000FFAB1C331B6800222100FFA80430FEF741
:102010002EFB794B9D4222D0002000F05DF9002874
:102020001FD0013881000918890074480918069BDF
:102030005A1E200008F0E8FC069B013BE318002232
:102040001A70200008F050FC01900090FFAB1C3388
:10205000FFAA203221003000FEF7F8FF77E52000CC
:10206000DBE7069B5A1EFFA90431200008F0CCFCD8
:10207000E2E7FFAB4C331B68002B00D067E56048FC
:1020800004F038FCFEF768F9792813D05D4804F0B5
:1020900001FCFFAB1C331B680193FFAB20331B68B3
:1020A0000093FFAB1C33FFAA203221003000FEF763
:1020B000CDFF4CE5544804F01DFCFEF717FB002350
:1020C0000593E3E7FFAB1C331B68002202920193E8
:1020D0000093FFAB1C33FFAA203221003000FEF733
:1020E000C1FE484804F0D6FB012730E5FFAB1C33A6
:1020F0001B680022029201930093FFAB1C33FFAADE
:10210000203221003000FEF7ADFE032D10D03D48F7
:1021100004F0C0FB0023FFAA20321360FFAA1C3288
:10212000136006F0A9FF0B23036001277F420EE531
:10213000364804F0AFFBEDE7002F50DBFFAB1C335C
:102140001B68002B04DDE218013A1278202A41D0E6
:10215000FFAB1C331B68E31800221A70FFAB4C3333
:102160001B68002B3CD1FFAB1C331B68002B37DDF9
:102170002749200008F074FB002831D01D4B1D6852
:10218000002D0FD0681E0A2103F0C4F90B0089004E
:10219000C9188900194BC9181422200008F0FAFB4D
:1021A00000281DD00A21280003F0B4F90F008E008A
:1021B00070188000114B984640441422210008F00A
:1021C00023FCF619B60046440023F3740135094B8D
:1021D0001D6005E0013BFFAA1C321360B8E7002434
:1021E00020000C4B9D44F0BCBB46B246A946A0461D
:1021F000F0BDC046E8240020531B4F0020240020DF
:10220000202B0110782A0110482B0110602B01109F
:10221000D429011024040000F0B585B003900C000F
:1022200015001F00002941D0012A3EDD00200AF0E0
:10223000B5FA002815D0204807F06AFB061E2AD000
:102240001E4908F08BFA00280BD01D49300008F019
:1022500085FA002805D01B49300008F07FFA0028D5
:1022600019D1194B1B685A682900200007F002F9A0
:1022700000281ED0200008F037FB02E00023137076
:102280000138002812DD431EE218E35C0A2BF5D06A
:102290000D2BF3D00AE0002300933B00039A2900A2
:1022A0002000FEF7E3FE040000E00024200005B05B
:1022B000F0BD0400FAE7C046382D0110402D011092
:1022C000482D0110502D0110700E002010B5002374
:1022D000FFF7A2FF10BD000030B58BB00400312322
:1022E0000393002304932E4804F0D4FA002C07D063
:1022F00005AD13222100280008F086FB0023EB74B3
:1023000023005A1E934101220092264A142105A857
:10231000FEF7ACFE00283ED0234C132205A9200076
:1023200008F072FB0023E374204B1B6898680123BC
:102330000093002305AA0121FEF746FB041E02D1EB
:1023400000200BB030BD431E5A425341012200927F
:10235000174A082103A8FEF789FE00281DD003AD07
:10236000280006F035FE03002978002903D08442B6
:102370000BD3002809D00D4A126890680022009201
:1023800005AA0121FEF720FBDBE703A9094804F0B9
:10239000B1FA0020D5E70020D3E70020D1E7C046FE
:1023A000782A0110582D011004240020700E0020FE
:1023B000742D0110882D0110034B1B68022018405A
:1023C000431E9841C0B2704700C00640EFF3108032
:1023D00072B6034B1B68002BFBD0BFF35F8F7047B7
:1023E0002C0100D0BFF35F8F024B00221A6080F3F4
:1023F000108870472C0100D0F8B506000C001500BD
:10240000FFF7E4FFE308F718F15C072222400123FD
:1024100093400B4205D1DBB20B433B70FFF7E2FF69
:10242000F8BD2100280001F049FFF0B583B0060097
:10243000019114001F00FFF7C9FF00E00134BC4206
:102440000CD8E308F518F35C0721214001228A40EB
:102450001A42F3D1D2B21A432A7001E00124644235
:10246000FFF7C0FF002C02DB200003B0F0BD019B92
:10247000002BF9D0089801F021FF0000002307E0AD
:10248000054A9A189200BFF35F8F00211160013353
:102490001F2BF5D97047C04640000034054A10781C
:1024A000431CDBB21370172B02D9130010221A70D1
:1024B0007047C0469C0D002000B583B00100044B5E
:1024C00000931F2318220348FFF7AFFF03B000BD9E
:1024D000C0410110281F0020074B9B68103080006E
:1024E0001950BFF35F8FBFF35F8F044B002119605A
:1024F00082F310887047C04600ED00E0240100D050
:1025000010B5091A081F0A4B9C466144094A9142BA
:1025100008D8C30706D440104005400D064B1843A9
:1025200080B210BD054B064AA321064801F02CFEDF
:10253000FC070000FE0F000000E0FFFFDC4101107F
:10254000684401100C42011010B5091A04394C08F6
:10255000090B08D14905490D064A11430180064B74
:102560002343438010BD054B054AAB21054801F0CC
:102570000BFEC04600F0FFFF00F8FFFF68420110AD
:102580003C4401100C42011001238340034A1068AF
:102590001840431E9841C0B27047C04600E100E0B9
:1025A000002904D0034B1860034B18607047034B9D
:1025B0001860FBE780E200E000E100E080E100E07D
:1025C00010B5012383401800FFF7EAFF10BD00009B
:1025D00001238340014A13607047C04600E200E0D7
:1025E000024B9B6810308000C058704700ED00E03F
:1025F00010B5FFF7F5FF002805D0054BC01A2F28AE
:1026000003D8012010BD0020FCE70020FAE7C046F7
:10261000A00D002070B504000D00EFF3108672B617
:102620000C4B1B68002BFBD0BFF35F8F2000FFF724
:10263000D7FF094B984201D0A84205D132002900AA
:102640002000FFF749FF70BD044B054A862105486D
:1026500001F09AFD240100D0CD0100107842011054
:102660009C4401100C420110F0B5DE4657464E4620
:102670004546E0B589B0814601911500EFF3108A17
:1026800072B6744B1B68002BFBD0BFF35F8F724B8D
:102690000027DF57002F40DB7C00E419A4006F48BF
:1026A00024180622A2566C4B1A706D4B9A684B4642
:1026B00010339B00D35898461E001B1A2F2B38D975
:1026C000684B98452FD105AE674B33807B009B4606
:1026D000D8198000614B9846404402306349FFF7A7
:1026E0000FFF7080624BB380FF23B371F571019BC4
:1026F00007935F44BF0047440ECE0EC701231C431F
:10270000A046524641464846FFF7E6FE09B0F0BCF7
:10271000BB46B246A946A046F0BD564B564AD72105
:10272000564801F031FD564B534ADE21534801F023
:102730002BFDC04340440C2102F0ECFE002912D1D5
:1027400001239E43B34633000026DA79AA4211D909
:102750000621595600290CDB4A00521892001E002F
:102760003E4B9B18F1E7474B434AEA21434801F0AF
:102770000BFD1E00002E3AD005AB434A1A80813A69
:102780005A800623F3560293002B17DA3F4805AB15
:102790009B469880029A9A71DD71019A0792301DCA
:1027A0002100FFF7ADFEB080B7717B00DB199B0005
:1027B0002A4FFF185B4607CB07C7A2E77800C0196E
:1027C0008000264BC0180430321DB388D90A1C295A
:1027D00007D15B055915023149005118FFF790FEEA
:1027E000D5E72B4B2B4AB121244801F0CDFC05AE97
:1027F0001D4B33807B000293D8198000174A904606
:10280000020042440392901C1849FFF779FE708041
:10281000039A101D5946FFF773FEB0801E4B5A46AF
:102820004146521A524153431B0DB371F571019A3F
:102830000792029B9C466744BF0047440ECE0EC7DA
:10284000114B5A461380813B538001231C43A04601
:1028500057E7C046240100D029270020A00D002002
:1028600000ED00E0CD01001000A1FFFFD00D002021
:1028700001BDFFFFB0420110844401100C42011061
:10288000D8420110004301100148000001BD0000C2
:102890007443011074440110AAAA0000F0B5CE469A
:1028A000474680B583B006000D00EFF3108872B67E
:1028B000564B1B68002BFBD0BFF35F8F544B9A68BD
:1028C00034001034A300D758524B9F4207D0AF4278
:1028D00000D198E00197504BFB1A2F2B09D94246A3
:1028E00039003000FFF7F8FD03B0C0BCB946B04670
:1028F000F0BD3000FFF748FE814600213000FFF7B1
:102900005FFEBFF35F8FEFF30581002901D08C429A
:1029100011D10123019C9C430022A368AB4212D039
:102920000622A256002A0DDB53009B189B002200B2
:10293000394CE418F1E73621384B394AFF31394830
:1029400001F022FC2200AB4256D106256557002D2E
:1029500038DB6B005B199A002F4B9B189A68A260BA
:10296000DA79E27106229A56A2719B795BB2002B4A
:102970000FDA2D48A0806B005B199B00264AD31804
:102980002A4A11789971157049463000FFF718FEF0
:10299000A5E7201D6B005B199B001F4A9B181A1DA1
:1029A0009B88D90A1C2907D15B055B1502335900A6
:1029B0005118FFF7A5FDDDE71D4B1E4AB12119484F
:1029C00001F0E2FB002912D1002A0ED0FF239371FF
:1029D000194B9380154A1378A371184B0E49641A4A
:1029E000644163431B0D1370CEE70A4FF2E7201DCD
:1029F0001349FFF7A9FDC7E76A21124B084AFF31C7
:102A0000084801F0C1FB034F69E7C046240100D02C
:102A100000ED00E0CD010010A00D00208C4301105E
:102A2000544401100C42011001BD00002927002070
:102A3000744301107444011001BDFFFFAAAA0000F5
:102A4000DA0D0020C043011070B5012101432E4B67
:102A5000CB1A2F2B28D8EFF30583002B2BD0EFF3C5
:102A6000108C72B6294A1268002AFBD0BFF35F8F20
:102A7000274A0400244D641B64416243120D54B282
:102A8000244A92689B00D2588A421BD00022032A13
:102A900032D853009B189B001B49CB189B795BB223
:102AA000A3421FD00132F2E7C7211B4B1B4A49004A
:102AB0001B4801F069FB92211A4B184AFF31184854
:102AC00001F062FB134A92681749D150174B1A78EC
:102AD00082711C70BFF35F8F0C4B00221A608CF365
:102AE000108870BD0D005300991889006918FF26E1
:102AF0008E710F4A8A80E9E7D1210E4B074A4900BF
:102B0000074801F041FBC046A00D0020240100D081
:102B1000AAAA000000ED00E0C84301102044011003
:102B20000C420110F0430110CD01001029270020B4
:102B300001BDFFFFFC4301100022044B02E00449E9
:102B400002C30132072AFAD97047C04600E400E008
:102B50008080808000B583B00100064B0093052380
:102B600000220548FFF761FC002801DB1F23181A2B
:102B700003B000BD044401102E270020024B9C46E8
:102B800061448900016070474000003410B50400C2
:102B9000FFF784FC01002000FFF7F0FFFF23237103
:102BA000BFF35F8F10BD10B50400FFF777FC010085
:102BB0002000FFF7E3FFFF23237100236371BFF3BE
:102BC0005F8F10BD034B9C46614489000160BFF3D9
:102BD0005F8F70474000003410B504000120FFF7FC
:102BE0006BFC01002000FFF7EDFF10BD70B5050084
:102BF0000C00080000F04CFE0949200000F08CFD9C
:102C0000FFF74CFC074B9C466044800068602C75C5
:102C1000D0231B061B786B75A400034BE55070BDD9
:102C2000312F001040000034E82300200A4B1A68BE
:102C3000EFF3108172B61368002BFCD0BFF35F8FE7
:102C4000054B1B68BFF35F8F00221A6081F3108869
:102C500040BF002000217047F826002010B5002951
:102C600022D003681B7B99421ED8174B9C466144B7
:102C7000090183689C4661440C684968002A19D0A0
:102C800003681B7B9A4215D883680F4884466244C8
:102C900012019A1810685368020001208B4201D873
:102CA0000ED00020C0B210BD084B094A3C21094893
:102CB00001F06AFA054B064A3C21064801F064FA25
:102CC000A242EFD8EDE7C046FFFFFF0F8446011098
:102CD000B44801103046011010B500291ED0037B06
:102CE00099421BD84B005B18033B0468A44663441D
:102CF000002919D0002A1DD0914221D0002A25D0C8
:102D0000047BA24222D8046850008018033820189F
:102D10008170197800291FD11A7010BD104B114A0B
:102D20006821114801F030FA104B114A6F310E48FA
:102D300001F02AFA0F4B0E4A70210B4801F024FAD9
:102D40000D4B0B4A7121084801F01EFA044B054A4D
:102D50006821054801F018FA41701A70DDE7C04695
:102D6000A846011020490110C44601102C4701104B
:102D7000FC480110384701104447011070B50600A7
:102D80000D001400002914D0002A14D08068736844
:102D90009847002806D0220029003000FFF79CFF4A
:102DA000280007E02A0021003000FFF795FF2000EF
:102DB00000E0100070BD0800FCE70000F0B583B033
:102DC0000500009201930AAB1C780BAB1F78002C16
:102DD00026D003685A7B944207D10123002B19D1D6
:102DE000002C3BD1200003B0F0BD002C0CD01A7B8E
:102DF000944209D81A6863001B19033BD3189B78C7
:102E0000002BEBD00123E9E73E4B3F4A68213F48C6
:102E100001F0BAF93E4B3F4A67213F4801F0B4F94F
:102E200003689C7B002CDBD012D01A7B94420FD815
:102E300062001219033A19688C46624451789973FA
:102E4000002900D1D9730023937053701370C7E722
:102E50002C4B2D4A68212D4801F096F9002C3AD0D0
:102E60002B681B7B9C4236D82C4BE3181B01AA68AD
:102E700094466344009A1A60019A5A60089A9A60CC
:102E8000099ADA602E68002C2BD030D0337B9C421C
:102E90002DD863001B19033B32689446634400221B
:102EA0009A705A701A70717B22003000FFF766FF2B
:102EB0007073844200D095E7287D009A019B00F052
:102EC00073FC061E01D0002F17D00C9B002B00D1E5
:102ED00088E71E7086E7124B124A3C210E4801F02B
:102EE00053F9114B114AA521084801F04DF9054B42
:102EF000054A6821054801F047F92868210000F0DB
:102F00008BFEE2E7A846011020490110C4460110DB
:102F10005C4701102C49011030460110FFFFFF0FE4
:102F200084460110B44801102C46011010490110CC
:102F3000F0B5DE4657464E464546E0B58BB00990A3
:102F4000002308938200B54BD658370052E0B44BAB
:102F5000B44A3F21B44801F017F9B44BB44A3C21BC
:102F6000B44801F011F9002901D1002869D10021EC
:102F7000404600F047FEA04219D12A686B680692CD
:102F80000793AB689846EB689A464346002B14D0EB
:102F9000002C18D03B681B7B9C4214D8631EFA6837
:102FA000D35C08931B0218433861002015E0A24B44
:102FB000A24A8E219F4801F0E7F8A14B9F4A922137
:102FC0009C4801F0E1F8994B9E4A4121994801F053
:102FD000DBF800239A46984600207B68BFF35F8F9A
:102FE00000221A6086F310884346002B32D1002855
:102FF00000D10CE100F04CFB02000B1EA7DB00200F
:103000000021069007917868EFF3108672B6016888
:103010000029FCD0BFF35F8F396888464C7B002CB9
:10302000D7D09AD0097B8C4297D8874965182D0153
:10303000B9688C46654428686968801A99410029F6
:1030400091DD2A686B68099800F0AEFB00239A4670
:103050009846C2E7089B1B02234399465146180035
:10306000C04705000E007A68EFF3108B72B6136844
:1030700059424B41D9B2002BF9D1BFF35F8F002EDB
:103080001EDB002E46DD3B69002B47D04B456DD142
:1030900000F0FEFA02000B1E6EDB52197341002B8A
:1030A00070DB002B72DB002104910131039102944B
:1030B00051460191414600913800FFF77FFE4CE0F8
:1030C0003B69002BDDD04B4514D1069A079B521B60
:1030D000B341002B14DB002B16DB002104910131DE
:1030E0000391029451460191414600913800FFF747
:1030F00065FE32E0554B514AA1214E4801F044F89B
:1031000001225242524BE6E7454B464A3F21464890
:1031100001F03AF8002E01D1002DB4D13B68002C0B
:1031200050D05A7B944237D1012100294AD1DA7B11
:10313000002A4DD19A7B002A03D1DA7B002A5AD18A
:103140009C73DC73002C5CD03B681B7B9C4258D882
:10315000FA68013C135D0133135500233B617A6823
:10316000BFF35F8F13608BF3108843E7374B334A0D
:10317000A421304801F008F8294B2A4A3F212A4867
:1031800001F002F801225242314B8AE7244B254AD2
:103190003F21254800F0F8FF002C0DD01A7B944207
:1031A0000AD862001219033A186884466244927879
:1031B000002ABAD00121B8E7264B274A68212748C0
:1031C00000F0E2FF264B274AF621244800F0DCFFFE
:1031D000002A0AD0197B8A4207D851008A18033A7C
:1031E00019688C4662445470A4E71A4B1A4A682145
:1031F0001A4800F0C9FF1C4B1A4AFB21174800F07F
:10320000C3FF0A4B0F4A41210A4800F0BDFF0BB033
:10321000F0BCBB46B246A946A046F0BDE82300205C
:1032200028450110804801104445011084460110D2
:10323000B44801103046011084470110984801102D
:103240009C470110D8480110FFFFFF0FA84701104D
:10325000FFFFFF7FA846011020490110C44601105E
:10326000E4470110EC4801100848011010B50C4B60
:103270005B68002B04D00A210A48FFF77FFC10BDD1
:10328000074C2300084A1021206800F0CBFB0320E4
:1032900000F0F2F903212000FFF7A8FCEBE7C0469D
:1032A000E80D0020F82600205D2C001010B5064B1C
:1032B0005B68002B01D0044810BD044B044A5E211A
:1032C000044800F061FFC046E80D00201C480110D2
:1032D000C048011030460110F0B5DE4657464E4654
:1032E0004546E0B58BB0804616001F00149B9A46F9
:1032F000159B994616AB1B789B461F2302AA944642
:10330000634400221A702BE0002809D0424612685C
:10331000127B904204D8421E4146C9688A5C41E053
:10332000404B414A4121414800F02EFF07984CE0B4
:10333000361BAF41002F07DB002F11DA3C4B3D4A13
:103340003F213D4800F020FF012676423B4FF3E746
:10335000374B384A3F21384800F016FF002F4FDB2B
:1033600043465A68EFF3108472B6136859424B41D2
:10337000D9B20791002BF8D1BFF35F8F1F3302AA98
:103380009446634404930023039302934B460193B2
:103390005346009332003B004046FFF70FFD031EEB
:1033A000B2D1020041464968BFF35F8F00250D602E
:1033B00084F31088002B29D01F2302A98C46634474
:1033C0001B78002BB2D112021043002B20D05B4699
:1033D000002B1DD04946D04704000D0003000B43CD
:1033E0001DD00029A4DB00F053F906000F1EAFDB4F
:1033F00036196F41002FB1DA012676420F4FADE743
:103400000B4B0C4A3F210C4800F0BEFE012040420D
:103410000BB0F0BCBB46B246A946A046F0BD07982B
:10342000F6E7C04684460110D84801103046011026
:10343000284501108048011044450110FFFFFF7F1F
:10344000F8B50400002900D162E04268EFF310856E
:1034500072B6136858424341D8B2002BF9D1BFF37A
:103460005F8FCBB22268567BB3421BD1012000286C
:1034700048D0206988422BD0090AC9B2002B2ED02F
:103480002068007B83422AD8581EE668305C884258
:103490002BD000206368BFF35F8F00221A6085F392
:1034A0001088F8BD002B0DD0167BB3420AD85E0001
:1034B000F618033E1768BC466644B678002ED6D090
:1034C0000120D4E7134B144A6821144800F05CFE35
:1034D0002C21134B134AFF31134800F055FE134BB8
:1034E000134A4121104800F04FFE1900100000F06F
:1034F00093FB0028CED199210E4B0A4A49000A4875
:1035000000F042FE23698B42C4D100232361C1E74E
:103510000020C6E7A846011020490110C44601104A
:1035200040480110684801103046011084460110DF
:10353000D848011064480110407D704770B584B0D0
:1035400005000C00EFF30583002B1ED1FFF7AEFE44
:10355000002302930193224B00932A002300FFF7DC
:10356000BBFE061E23DD20BFFFF7A0FE3100FFF7E4
:1035700067FF1C4B5B6A9C422DD81A4A926AAA428A
:103580002CD29C4225D0012026E0164B5B6A994242
:1035900009D8144A926A824207D2994201D0012086
:1035A0001AE0002018E0002016E0012014E00D4B86
:1035B0005B6A9C4209D80B4A926AAA4207D29C4293
:1035C00001D0012008E0002006E0002004E00120F6
:1035D00002E0002000E0002004B070BD0120FBE705
:1035E0002D2C00100040054070B5EFF30580103819
:1035F000EFF3108C72B61A4B1B68002BFBD0BFF395
:103600005F8F01221300834016494B6316490B60FC
:10361000164909780C00C440224214D0114A546A59
:103620008200134D5259944206D38200114C125914
:1036300099430E4B197007E00A4A031D9B009958E5
:103640009950002200E00022BFF35F8F044B00215D
:1036500019608CF31088002A00D0904770BDC046D6
:10366000280100D0004005403C7005402D27002077
:1036700004270020101E002010B50100024A034854
:10368000FEF7BAFE10BDC0465049011028270020A1
:10369000044B5B6A034A906A1900536A9942F9D154
:1036A0007047C04600400540084B5B6A01E0074B8D
:1036B0005B6A8B42FBD301E0044B5B6A8B4203D114
:1036C000024B9B6A8342F7D37047C04600400540D7
:1036D00070B504000D00FFF7DBFF02000B002000B7
:1036E0002900801859418B4202D804D1824202D964
:1036F00001204042C117002902DBFFF7D5FF70BD52
:10370000024B034A3F21034800F03EFD28450110CB
:10371000144A01104445011070B504000D00EFF388
:10372000108672B61B4B1B68002BFBD0BFF35F8F5C
:10373000002D1CD02000FEF753FF174B83420BD007
:1037400019002000FEF766FF01212000FEF738FF78
:103750000123A340114A1360A400114BE550BFF3AD
:103760005F8F0C4B00221A6086F3108870BDA20098
:103770000B4B0021D1500122A2400A490B78934300
:103780000B7005492000FFF789F800212000FEF7A3
:1037900017FFE4E7280100D0E93500103860054044
:1037A000101E00202D270020F0B5DE4600B584B0A5
:1037B0000400150001921E000293FFF769FF0395B4
:1037C0008E4202D84ED185424CD9EFF3108B72B69F
:1037D000274B1B68002BFBD0BFF35F8F254A177860
:1037E0000125A540EBB23B431370234B5D63221DC3
:1037F00092000199D150A2002049029850501B6AB2
:103800002B4212D11C4B1B6C2B4208D00020BFF363
:103810005F8F174B00221A608BF3108823E0184B40
:10382000184AC521184800F0AFFCFFF731FF8E425F
:1038300014D802D1039B834210D80E4B1B78BB4295
:103840000ED00D4B1D625D631F2004400123A34079
:103850000E4A1360074B1F701E38D8E70020D6E7CA
:103860000120D4E7012004B080BCBB46F0BDC046B7
:10387000280100D02D27002000400540042700200B
:1038800074490110F84901109849011080E200E0E4
:10389000EFF3108C72B60B4B1B68002BFBD0BFF301
:1038A0005F8F01238340084A136208490A789A43CC
:1038B0000A70BFF35F8F034B00221A608CF31088ED
:1038C0007047C046280100D0004005402D27002049
:1038D00010B500291ED0037B99421BD84B005B1802
:1038E000033B0468A4466344002919D0002A1DD074
:1038F000914221D0002A25D0047BA24222D804681C
:1039000050008018033820188170197800291FD1C1
:103910001A7010BD104B114A6821114800F034FC98
:10392000104B114A6F310E4800F02EFC0F4B0E4A1F
:1039300070210B4800F028FC0D4B0B4A7121084800
:1039400000F022FC044B054A6821054800F01CFCED
:1039500041701A70DDE7C046A8460110344B0110D3
:10396000C44601102C470110204B011038470110AC
:103970004447011070B506000D001400002914D052
:10398000002A14D0806873689847002806D0220067
:1039900029003000FFF79CFF280007E02A002100E3
:1039A0003000FFF795FF200000E0100070BD080018
:1039B000FCE7000010B50023437301338373037BDE
:1039C000C3730123027B9A4214D9002B0CD0027BD3
:1039D000934209D85A00D218033A01688C466244CF
:1039E0000133DBB25370EDE70B4B0C4A68210C48F6
:1039F00000F0CAFB002A09D0924207D801685300A0
:103A00009A18033A8A180023537010BD024B034AD8
:103A10006821034800F0B8FBA8460110344B0110A0
:103A2000C446011010B5017342608360FFF7C2FF06
:103A300010BD000070B50400081E00D170BD002943
:103A400034D0237B994231D84B005B18033B22686A
:103A5000944663445A78002AF0D02DD0237B9A42B2
:103A60002AD853009B18033B21688C4663445D7839
:103A700000215970002825D0237B984222D843008A
:103A80001B18033B21688C466344002159700100D8
:103A90002000FFF76FFF060029002000FFF7CAFF94
:103AA000020031002000FFF765FFC7E7084B094A15
:103AB0006821094800F068FB054B064A6821064862
:103AC00000F062FB024B034A6821034800F05CFBF4
:103AD000A8460110344B0110C446011070B5050012
:103AE0000C00160000292FD034D0037B994231D826
:103AF0004B005B18033B0268944663445A78002AE3
:103B00002ED19A78002A31D11978FFF793FF03005C
:103B1000002E0AD0EA7B002A2ED1AA7B002A03D1EC
:103B2000EA7B002A3BD1AC73EC73002B3DD1002C17
:103B30004FD02B7B9C424CD82B6861000C19033C66
:103B40001C190023637070BD254B264A3821264876
:103B500000F01AFB254B264A6821264800F014FB8A
:103B6000254B204A3A21204800F00EFB234B1D4AEA
:103B70003B211D4800F008FB002A0AD0297B8A421D
:103B800007D851008A18033A29688C466244547059
:103B9000C3E7164B164A6821164800F0F5FA184B91
:103BA000104A4221104800F0EFFA002B0BD02A7B7C
:103BB000934208D843001B18033B2A689446634489
:103BC00000229A70B3E7094B094A6821094800F0BE
:103BD000DBFA064B064A6821064800F0D5FAC046D3
:103BE0002C4A01100C4B0110344A0110A846011058
:103BF000344B0110C4460110884A0110B04A01102C
:103C00000848011070B504000A00457B2900FFF741
:103C100065FF6073280070BD70B50400002967D08F
:103C2000437B8B420ED0002911D0037B99420ED8E2
:103C30004B005B18033B0268D0188378002B0CD133
:103C4000002056E00121FFF7DDFF012051E0294B64
:103C5000294A6821294800F097FA002B20D0227BBE
:103C600093421DD85A00D318033B2268D218256806
:103C7000EB5C8B421AD0002B1BD0227B934218D8CE
:103C80005A00D318033B2268D21853788B4216D0BF
:103C9000002BF0D11A4B1B4A6B211B4800F074FA21
:103CA000144B154A6821154800F06EFA43781370DA
:103CB00007E0104B104A6821104800F065FA43787D
:103CC000537000238370437001222000FFF706FF2A
:103CD0000200617B814205D02000FFF74BFE60733C
:103CE000012006E0094B074A7121074800F04CFA11
:103CF000002070BDA8460110344B0110C4460110CD
:103D0000FC430110F44A0110344A0110D44A011056
:103D1000F8B5DE4657464E464546E0B505000F006D
:103D200092460A9A934250D31A0E91461E020A9A5C
:103D300000233000494601F02BFC80466C006419DA
:103D4000A400304B9C4664446368834200D26060A8
:103D50002B1FDBB29B46012B3DD9C0239B01234384
:103D6000802212011A60AB00274A9958002907D017
:103D7000506901F0CFFB431C5800C0180338FDD236
:103D800053465A0123685A40E0231A4080235B01BE
:103D900023431A605A46012A28D980239B012343D2
:103DA000802212011A6043466360424600233000BD
:103DB000494601F0EDFBAD00134B58510120F0BC1A
:103DC000BB46B246A946A046F8BD104B104A332167
:103DD000104800F0D9F9012FBFD1C0239B01234324
:103DE00003221A60A368DB07FCD5C9E72168794084
:103DF00003220A401A60A2680123BB401342FAD092
:103E0000CBE7C04600800040301F0020404B01102F
:103E1000B44B0110544B011030B583B00C2000F0AE
:103E20000BF9FEF7C9FA00280DD0002304E0990031
:103E30002D4A2E4888500133092BF8D92A4B2C4A99
:103E40005A6203B030BD2B4B00229A6700F066F92E
:103E5000294B01221A60274B5B6C012BFBD1274BAE
:103E600003221A60234B9B6B012BFBD10133009380
:103E70000433234A0121234800F04EF80523009320
:103E8000214A0121214800F047F8214B00930022EC
:103E900002210420FFF73CFF1E4D00952B0000225D
:103EA00001210520FFF734FF104C0094230000226D
:103EB00000210720FFF72CFF00942300002200219F
:103EC0000820FFF725FF0A4B009323000022002162
:103ED0000920FFF71DFF00952B000022002106207E
:103EE000FFF716FFADE7C046301F0020006CDC0274
:103EF0001BB70000008000403CB0004030B00040E4
:103F0000002F685900800240008C864700C00240A4
:103F1000001BB70040597307F0B5C64600B5040052
:103F20000E0017001D00374801F0F4FA8046364BAA
:103F3000FA18364B9A4239D80100380001F0EAFAF3
:103F40000200103A98235B009A4235D86B1E062B6C
:103F500038D8069B013B062B34D83F09474537D359
:103F60002D04069B1A0315432368002B36DB284BD0
:103F70009C4244D080225201264B1A60264B1A6084
:103F8000264B9B6811009943FAD12660A060231D3F
:103F9000C02292011A43212313602368002BFCDA0C
:103FA000E5600823136080BCB846F0BD1C4B1D4A79
:103FB00011211D4800F0E8F81C4B1A4A19211A4833
:103FC00000F0E2F81A4B174A1C21174800F0DCF801
:103FD000184B144A2321144800F0D6F822683F23D6
:103FE0001340B342C3D1A3681B051B0D8342BED14E
:103FF000E368EE22D2021340AB42B8D1D3E780226D
:104000009201B9E7001BB70080E84BD380F8A932D2
:1040100000C0024000E0004000F0004000C000404E
:10402000C44B0110044D0110244C0110804C0110B0
:104030009C4C0110E84C011080239B000343014A73
:10404000D362704700800540024B1A68024B5A60E9
:104050007047C046D82300200080054010B50200FC
:10406000164B8020C0051860154B164818600029B3
:104070000AD0154BE021C9041960002A09D1124B5E
:10408000802212061A6010BD0C4BE021C904196091
:10409000F3E753019B1A9800801800010B4B18603E
:1040A00080235B04984202D3084B094A1A60FFF749
:1040B000CBFF054B8022D2051A60E4E700B0054033
:1040C00008200140FCFF010000A00540D82300208B
:1040D000FFFFFF0010B5030010000C4A8024E40528
:1040E0001460002B0DD001221343094A094CD461FE
:1040F000094C5C401462516293620021FFF7AEFFED
:1041000010BD034B0022DA61F7E7C04600B005405E
:1041100000800540D3C007B02D3FF84F064BAA22C0
:1041200012011A602F22DA60044B054A1A60024B12
:104130005B68002BFBDA70470040024000600240E1
:1041400000B0FA0000BEFDE703000A4A1268002A28
:1041500008D0084A1068C318074A9A4206D3054A8D
:1041600013607047034A05491160F2E7012040429D
:10417000F7E7C046D01F00200000042030270020B1
:1041800010B5FFF7DFFF000010B582B00C0019007A
:10419000002A0CD0084B002A0BD001920093230078
:1041A0000200064802F0A6FB0120FFF7CBFF044BFC
:1041B000F1E7034AF1E7C046104D0110204D011010
:1041C0007C29011070B52B4B2B4A1A602B4B2C4AC3
:1041D0001A602C4B9A682A4B9343FAD12A4C01E07F
:1041E00008CC9847294B9C42FAD3FFF715FE234B86
:1041F000274A1A60234B9B68DB43DB01FAD1254B2E
:1042000040229A675A671A67DA66234C09E0234B03
:10421000234A87212348FFF7B7FF2000FEF7B6FCAB
:104220000834214B9C4209D22368002BF5D0012B86
:10423000EDD12000FEF7B7FC0834F2E71B4CA16873
:104240001B4DC022280002F07DF9A560EFF3058325
:10425000002B00D000BEFEF711F9FEF76DFCFFF752
:1042600005F8144C01E008CC9847134B9C42FAD354
:1042700070BDC04600E00040BFCDFBFE00F0004036
:10428000FE7F3C0000C0004034180020441800208D
:10429000FFFFFF0100F0014024180020504D0110E5
:1042A000E44D0110704D01103418002000ED00E0C5
:1042B00000000020441800204C1800200FB400B566
:1042C00083B0084802F0E6FA049B002B07D005A94A
:1042D0000191180002F0EEFA034802F0DBFA012027
:1042E000FFF730FFD04D0110E04D01109A4200D28F
:1042F00088547047704710B5002802D00B68496891
:10430000984710BD0100002007E083001B185B00E8
:10431000501C08601078C01830380A681378303B99
:10432000DBB2092BF1D97047F0B5DE4657464E4651
:104330004546E0B583B093461F000C9B9A460D9C02
:104340000E9B99460F9B9B0703D0B8460F000600B3
:1043500022E00192A34688464E46B9460700B44281
:1043600007D2551C4B4641462020B84701342A004D
:10437000F5E73D004F465C46019B9B46B1464646ED
:10438000B84637002E0007E0013C551C5346185D27
:1043900043463900B0472A00002CF5D135003E00D5
:1043A00047460F9B9B0707D4100003B0F0BCBB46E9
:1043B000B246A946A046F0BDB0464E46B9462F00CB
:1043C0005D46531BB342EFD2541C4B46414620205E
:1043D000B8472200F5E7F0B5CE46474680B585B030
:1043E000944698460C9D0D9C0EAB1B789946109AEE
:1043F000119B129EB7071CD4002B0CD0F7070AD5CF
:104400004F46002F02D10C37374204D0013B02E067
:1044100030272F550134944201D21F2CF8D9F707C9
:1044200007D59C4205D21F2C03D830272F550134C5
:10443000F5E7F70615D5770505D4002C03D094428F
:1044400024D09C4222D00F9A102A2BD00F9A102AE7
:1044500030D00F9A022A35D01F2C02D830222A558C
:1044600001341F2C05D84A46002A31D02D222A5566
:104470000134039602930194009543466246FFF788
:1044800053FF05B0C0BCB946B046F0BD621E012C5A
:1044900006D00F9F102F01D01400D4E7023CD2E7C2
:1044A0001400D0E7B206D1D41F2CCFD878222A55D9
:1044B0000134D1E7B206CCD51F2CCAD858222A55D0
:1044C0000134C9E71F2CC7D860322A550134C3E72D
:1044D000720703D52B222A550134CAE73207C8D503
:1044E00020222A550134C4E7F0B5DE4657464E4631
:1044F0004546E0B593B081468A46089209931CABC5
:1045000010CB1B789B461E9D219B9846002C03D107
:10451000102342469A4390468023DB0046461E40C5
:1045200042461A4212D0002C22D000260EE0303330
:10453000D9B2771C0AAB99552900200000F0EAFF98
:10454000AC4216D31F2F14D83E00040029002000CF
:1045500000F0E0FFCBB2092BE9D94246920605D51F
:104560004121C918C9B20A39C9B2E2E76121F8E7A5
:10457000270043460693209B05931F9B04930395B6
:104580005B46029301970AAB0093099B089A514638
:104590004846FFF720FF13B0F0BCBB46B246A94621
:1045A000A046F0BDF0B5DE4657464E464546E0B55E
:1045B00095B0089009910A920B931E9E1F9C20AB08
:1045C0001B789B46229B9946239D269B9A46330047
:1045D000234303D1103352469A4392468023DB0093
:1045E00057461F4052461A4219D0330023432DD05C
:1045F000002714E03033DAB27B1C98460CABDA5556
:104600004A462B003000210000F0C2FFA5421FD80F
:1046100019D043461F2B1BD8474606000C004A46BC
:104620002B003000210000F0B3FFD3B2092BE1D9F9
:104630005246920605D54122D218D2B20A3AD2B2D7
:10464000DAE76122F8E7B145E3D901E000239846B3
:1046500053460693259B0593249B04934B46039353
:104660005B460293434601930CAB00930B9B0A9A63
:1046700009990898FFF7AFFE15B0F0BCBB46B246EB
:10468000A946A046F0BD0000F0B5DE4657464E46AE
:104690004546E0B591B083468A460C9298461A9CEE
:1046A00008941B9D099522002B002000290001F091
:1046B00002FA002800D0E5E001225242D74B200048
:1046C000290001F0F3F9002800D0DBE0012252427A
:1046D000D34B2000290001F0D3F9002800D0D1E00D
:1046E00000220023089E3000099D290001F0C8F92E
:1046F000002800D0DDE008980999069007918023F2
:10470000DB001E9A1A400D921E9A1A4201D106230E
:104710001C930698079904000D000A000600024346
:1047200000D1D1E0080D4005400DBE4CA4466044C8
:104730000A03120BBC4B13431F0001F0CFF9BB4A15
:10474000BB4B01F052F9BB4ABB4B01F027F9040007
:104750000D000022B94B3000390001F016F9B84ABB
:10476000B84B01F042F902000B002000290001F0D3
:1047700015F901F0CBF9814601F0B0F904000D0004
:10478000B14AB24B01F031F90022B14B01F006F908
:1047900001F0BCF90600AF4AAF4B2000290001F040
:1047A00024F904000D00300001F098F9AB4AAC4B3D
:1047B00001F01BF902000B002000290001F0E5F8D0
:1047C00004000D0002000B0001F00FF90A900B919C
:1047D000A44BF31800261F0522002B0020002900FF
:1047E00001F0DCF80E900F9122002B0000208021B8
:1047F000C90501F0CAF804000D0000229A4B0A987E
:104800000B9901F0D4F80022984B01F0C7F8020090
:104810000B000A980B9901F0CAF80022944B01F0A2
:10482000BDF802000B000A980B9901F0C0F80200D5
:104830000B002000290001F0B1F802000B000E98D7
:104840000F9901F0B4F80022774B01F0A7F832007D
:104850003B0001F0CAF806000F0004000D00069AA4
:10486000079B01F023F9002830D001235B429C46CE
:10487000E14400227D4B3000390001F098F804003B
:104880000D0023E01E9B04931D9B03931C9B02932E
:10489000089A099B0092019343460C9A5146584648
:1048A00000F0FCF811B0F0BCBB46B246A946A046E9
:1048B000F0BD0023002406930794069680231B0670
:1048C0009C46654407951AE7002399464B46633397
:1048D000C62B1ED804261E9B1B0526D52B00234362
:1048E0000FD0644A644B0698079901F0D7F8002866
:1048F00079D00022614B0698079901F0C1F8002891
:1049000071D01C9B4B4506DD4A46981A431E1C93EA
:1049100003E00526DFE700231C938023DB001E9ABB
:104920001A431E920026002399461D9B9E4264D284
:104930009F1B02231E9A1A400A921E9A134202D00B
:10494000002E00D000274B46002B07D022002B0062
:104950000698079901F02BF8069007910022002392
:104960000898099901F08CF8002848D1444B1E9A08
:104970001340049303971C9B0293069B079C009390
:10498000019443460C9A5146584600F087F8002E91
:1049900000D187E71E9B9B063DD54525441C434619
:1049A000020051462800D8474B46DA179B1853405F
:1049B00005220592013E0496002203920A320292D9
:1049C0004A46D00F01900093434622005146584674
:1049D000FFF78AFD0A9B002B00D163E702005F46C8
:1049E0000C9E1D9D54E01C9B002B9ED00D9B002B0C
:1049F0009BD01C9B013B1C9397E7002799E7069CE3
:104A0000079D2200290080200006844661440B0097
:104A100006920793AAE76525C0E7C046FFFFEF7F30
:104A2000FFFFEFFF01FCFFFF0000F03FFB799F500D
:104A30001344D33FB3C8608B288AC63F0000F83FB9
:104A400061436F63A787D23F71A379094F930A40EF
:104A50000000E03F1655B5BBB16B0240EF39FAFEDE
:104A6000422EE63FFF03000000002C4000002440DF
:104A7000000018402D431CEBE2361A3F80842E4183
:104A8000FFF7FFFF541C434651462020B847220041
:104A9000931BAB42F6D3100004E7C046F0B5DE46E8
:104AA00057464E464546E0B595B006900791934669
:104AB0009946209F1E9A1F9B1000190000F0FBFFD3
:104AC000002831D101225242BF4B1E981F9900F09D
:104AD000D7FF002837D101225242BC4B1E981F99A4
:104AE00000F0E4FF00283DD10022B94B1E981F9929
:104AF00000F0DCFF002850D10022B64B1E981F9911
:104B000000F0BEFF002848D1002200231E981F9904
:104B100000F0B6FF002850D100239846229B5B0589
:104B200000D4B6E0002458E0229B0393219B02931B
:104B300003230193A84B00934B465A4607990698C6
:104B4000FFF7F2FB0EE1229B0393219B02930423C8
:104B50000193A24B00934B465A4607990698FFF7DC
:104B6000E3FBFFE00423229A1A4022990B4210D063
:104B70009B4B002A0FD00422229903912199029184
:104B8000019200934B465A4607990698FFF7CCFBD3
:104B9000E8E0944BEDE70322EEE7229B0493219B90
:104BA000039302971E9B1F9C009301944B465A4609
:104BB00007990698FFF768FDD4E01E9A1F9B002016
:104BC000002100F0E2FE1E901F9101239846A5E708
:104BD0000CAB30221A55013F01341F2C01D8092F8C
:104BE000F6D81E981F9900F091FF050000F076FF9F
:104BF00002000B001E981F9900F0C7FEFA007A4BC6
:104C00009B181A685B680A920B9300F0EEFE0890FE
:104C1000099100F09FFF060000F05CFF02000B000E
:104C20000898099900F0B1FE0890099100226F4B95
:104C300000F03CFF00282ED00136300000F04AFF83
:104C400002000B000A980B9900F020FF002801D009
:104C500001350026002F2CD1280000F03FFF020074
:104C60000B001E981F9900F090FE06000F00002216
:104C70005E4B00F005FF002846D100225B4B300060
:104C8000390000F013FF00283ED1EB073CD5013579
:104C90003AE0062746E70022544B0898099900F0AD
:104CA000EFFE0028D6D1002E01D0F307D2D5013671
:104CB000D0E7AA461F2C11D8013F0A21300000F08E
:104CC00029FC651C30310CAB19550A21300000F06D
:104CD00021FC092E0ED906002C00EBE755461F2CAF
:104CE0000CD87B1E002F09D00CAA302111551F00B3
:104CF0000134F4E72B0055461C00F0E71F2C03D8C5
:104D00000CAB2E221A5501341F2C10D80A21280072
:104D100000F0D8FB661C30310CAB19550A21280075
:104D200000F0D0FB051E01D03400EDE73400032372
:104D3000229A1340012B1CD01F2C06D84346002B6F
:104D400032D00CAB2D221A550134229B0393219BA8
:104D5000029301940CAB00934B465A460799069870
:104D6000FFF7E2FA15B0F0BCBB46B246A946A04632
:104D7000F0BD219B002B13D04346002B02D10C33F6
:104D800013420FD0219B013B2193190003E00CAB90
:104D900030221A5501348C42CED21F2CF7D9CBE7E2
:104DA0002199F8E72199F6E7229B5B0704D50CAB24
:104DB0002B221A550134C8E7229B1B07C5D50CAB23
:104DC00020221A550134C0E7FFFFEFFFFFFFEF7FFE
:104DD00065CDCD4165CDCDC1004E0110044E011011
:104DE000F84D0110F44D0110F04F01100000E03FAC
:104DF000F0B5DE4657464E464546E0B593B082468E
:104E00008B4690461193002900D1EBE200275546CE
:104E1000119B1878002800D1E7E2252809D07C1CD6
:104E200043463A005946A847119B01331193270086
:104E3000EEE7013311930024119A11780B00203B07
:104E4000D8B2102803D88300D048C3589F460B001F
:104E5000303BDBB2092B2CD92A292FD000230A930F
:104E6000119B1A782E2A39D000239A46119A13786A
:104E7000683BD9B2122976D88B00C549CB589F46DA
:104E800001231C4301321192D6E702231C43013255
:104E90001192D1E704231C4301321192CCE708237D
:104EA0001C4301321192C7E710231C4301321192B7
:104EB000C2E711A8FFF726FA0A90D1E71C9B1A1D3A
:104EC0001C921868002804DB0A90119B013311938F
:104ED000C6E702231C4343420A93F6E78022D2002E
:104EE00014435A1C11925A781300303BDBB2092B41
:104EF00004D92A2A07D000239A46B7E711A8FFF75A
:104F000001FA8246B2E71C9B1A1D1C921868002801
:104F100004DB8246119B01331193A7E70020F8E7D9
:104F200080235B002343511C119152786C2A01D0DD
:104F30001C0018E0C0239B001C430131119112E0BA
:104F400080232343511C11915278682A01D01C0000
:104F500009E0C0231C430131119104E080235B0070
:104F60001C4301321192119B18780300253BDAB2E1
:104F7000532A00D92CE29300864AD3589F468023B7
:104F80009B001C4301321192EDE780235B001C4320
:104F900001321192E7E7782809D0582838D06F28D5
:104FA00038D0622838D010239C430A2600E010260F
:104FB000582833D0692803D0642801D00C229443A8
:104FC000630501D50122944369282AD0642828D09A
:104FD000A30500D59FE0E30500D5B8E0630600D443
:104FE000CAE01C9A111D1C911168FF220A40059409
:104FF0000A9B049353460393029600230193009265
:1050000043463A0059462800FFF76EFA070027E0AA
:105010001026CDE70826CBE70226C9E72022144355
:10502000C8E7A30520D4E30550D4630666D51C9ACF
:10503000111D1C911168FF220A40D317D118594045
:1050400005940A9B0493534603930296D20F019250
:10505000009143463A0059462800FFF745FA0700F9
:10506000119B01331193D3E61C9BDA1D07218A4360
:10507000110008311C91116853689C46DB170C9392
:105080000D930C9A0D9B100048400E9062465340C1
:105090000F930E980F990C9A0D9B801A99410E90C0
:1050A0000F9108940A9B0793534606930496002396
:1050B00005936346DA0F02920090019143463A004D
:1050C00059462800FFF76EFA0700C9E71C9A111D20
:1050D0001C911268D317D118594005940A9B049368
:1050E000534603930296D20F0192009143463A0031
:1050F00059462800FFF7F8F90700B1E7230605D560
:105100001C9A111D1C910023D25E96E71C9A111D5A
:105110001C91126891E71C9BDA1D07218A4311003C
:1051200008311C9108940A9B0793534606930496F2
:105130000023059302931368546800930194434637
:105140003A0059462800FFF72DFA070088E71C9A15
:10515000111D1C9105940A9B0493534603930296D8
:10516000002301931368009343463A0059462800F0
:10517000FFF7BAF9070073E723060DD51C9A111D36
:105180001C9112681204120C31E7C0460C4E01103B
:10519000504E01109C4E01101C9A111D1C9112685A
:1051A00025E746281AD01C9B0733072293431A0091
:1051B00008321C9204940A9A0392524602925C6846
:1051C0001B680093019443463A0059462800FFF7B4
:1051D00065FC0700119B0133119319E620231C4342
:1051E000E1E7672801D0472802D180231B011C4337
:1051F000452801D0472801D120231C431C9B07339D
:10520000072293431A0008321C9204940A9A0392CC
:10521000524602925C681B680093019443463A0030
:1052200059462800FFF730FA0700119B013311930C
:10523000EEE502231A002240924623421FD00124A9
:105240001C9B1A1D1C927A1C9146187843463A0002
:105250005946A8475346002B16D1119B0133119391
:105260004F46D5E5561C434659462020B8472300F3
:1052700032005C1C9D42F5D83D001700E0E7012399
:105280003A002F000A9DF4E74A46A9460A9D06E027
:10529000571C434659462020C84734003A00661C34
:1052A000A542F5D84D469146D7E71C9B1A1D1C9286
:1052B0001B6899465346002B00D1013B4E4601E046
:1052C000013613003278002A02D05A1E002BF7D183
:1052D0004B46F21A10928023DB0026001E401C422F
:1052E00003D0524501D95346109302231A0022409D
:1052F0000B92234205D03A0037004C46A94655464A
:1053000020E03A00109B5F46B3462E0006E0551C95
:10531000434639002020B04723002A005C1C0A992C
:105320009942F4D835005E46BB46109437004C468F
:10533000A946554606E01D000134561C4346594611
:10534000C84732002078002804D0002FF4D06B1E0C
:10535000002DF0D117004D460B9B002B03D1119B64
:105360000133119354E50A9F109B06E0561C4346F7
:1053700059462020A847230032005C1C9F42F5D8E4
:105380001700ECE721231C431C9B1A1D1C921B6871
:105390000093059408230493534603931023029328
:1053A0000023019343463A0059462800FFF79CF832
:1053B0000700119B013311932AE57C1C43463A00F8
:1053C00059462520A847119B0133119327001FE55B
:1053D0007C1C43463A005946A847119B0133119360
:1053E000270015E50A4B9A4610E5AA46474502D321
:1053F00043465A1E00E03A00434659460020D04733
:10540000380013B0F0BCBB46B246A946A046F0BD7A
:10541000F54200100EB410B585B0010007AC08CC01
:1054200003940122009452420348FFF7E1FC05B0C7
:1054300010BC08BC03B01847ED42001000B585B0A1
:10544000029003910121009313004A4202A90248ED
:10545000FFF7CEFC05B000BDF74200100148042163
:10546000014B1847100E00208D54001010B501009C
:1054700018231B8814221088984710BD10B501000E
:1054800018231B8816221088984710BDF0B5C64611
:1054900000B507000E0000250123984600E0013505
:1054A000B5420AD2AC003C192068FFF7DFFF20604C
:1054B0000028F4D100239846F1E7404680BCB84666
:1054C000F0BD0000124A936F9B0815D29066D1661A
:1054D000002905D0FFE7FFE7FFE7516F106F704726
:1054E00004B580210906C2175140002800D0C843E6
:1054F0000DF0EAF9002104BDF0B5146E556E576F3A
:10550000166FFFF7E3FF1466556657671667F0BD21
:10551000000000D0114A936F9B0813D210665166A9
:10552000002905D0FFE7FFE7FFE7516F106F7047D5
:1055300004B5002801D00020C0430DF0C5F90021BA
:1055400004BDC046F0B5146E556E576F166FFFF769
:10555000E5FF1466556657671667F0BD000000D07A
:1055600094464A4A926F9208624601D228E0C046A9
:10557000F0B5464E346E756E776F366F00F020F8DA
:105580009446424A14665566576716676246F0BDF0
:1055900094463E4A926F9208624601D254E0C04659
:1055A000F0B53A4E346E756E776F366F00F04CF88A
:1055B0009446364A14665566576716676246F0BDCC
:1055C000002B24DB11D000293EDA00B5C94340424C
:1055D00000D1013100F038F8C943404200D1013117
:1055E000DB43524200D1013300BD002AEBD1002839
:1055F00001D1002905D00020C90FC90701D1C0433E
:10560000410800B50DF050F90022002300BD00B59F
:1056100000290ADBDB43524200D1013300F014F8C9
:10562000C943404200D1013100BDC943404200D1CD
:105630000131DB43524200D1013300F005F8DB4376
:10564000524200D1013300BD002923D1002B18D1D3
:10565000002A0CD0BC460D4F38667A660021002324
:10566000FFE7FFE7FFE77A6F386F6746704700286C
:1056700001D00748010000B50DF016F90022002303
:1056800000BD02000B00002000217047000000D088
:10569000FFFFFFFF002B00D0BFE0130C28D1002A32
:1056A000E7D080B4114F39667A66FFE7FFE730B480
:1056B000040C7B6F396F1B0423433B667A66FFE75C
:1056C000FFE7FFE7C04684B27B6F3D6F1B042343B7
:1056D0003B667A66FFE7FFE7C04600232C042D0CEB
:1056E0007A6F386F00196941B0BC7047000000D074
:1056F000F0B594460025140E01D112020835140F9E
:1057000001D112010435940F01D192000235D40F5A
:1057100001D152000135D40B0134254F7C66254C54
:105720003C660E0C93B2FFE7FFE7FFE73C6F664372
:10573000360C7703BE467343DF0B5B04C01AB941D6
:10574000130C7343DB18C91ACE086643360CB644F3
:1057500093B273431F0F1B01C01AB941130C73435B
:105760001F0B1B05C01AB941860D8F023E436643CD
:10577000360C092D24DB520A7243801A7703460A3D
:105780006643360C16235B1BDE40DF40BF196446C0
:105790006643821B7046043506330100D940A84099
:1057A000C01900D30131A24206D20023F0BD00008F
:1057B000000000D0FFFFFFFF121B0130F3D3F1E721
:1057C00009277F1BFE406446A2B27243801A00D2B2
:1057D0000139220C7243130C1204821A99410B00F6
:1057E0007046043513370100F940A840801900D3F2
:1057F0000131002B02D1A2420AD2F0BD013000D308
:105800000131121BFAD2013BF8D1A24200D2F0BD05
:10581000013000D30131121BF7E7F0B51C0C00D0AA
:1058200080E00CB400251C0A04D11B02160E334381
:10583000120208351C0B04D11B01160F3343120151
:1058400004359C0B04D19B00960F33439200023524
:10585000DC0B02D192185B4101351C0097186441A2
:105860000134464F7C66464C3C660E0CFFE7FFE772
:10587000FFE7C0463C6F6643360C7703BE4697B2DF
:105880007743C01B00D20139C01B00D201399FB23F
:105890007743C91BC91B170C77437E04FF0B801B82
:1058A000B941CE086643360C0C2D33DBB644120BDF
:1058B0001F053A431B0B97B27743C01B00D2013937
:1058C0009FB27743C91B170C77433E043F0C801BE4
:1058D000B941860D8F023E43664329277F1BFE4058
:1058E0000C3D7746AF40BF1930BCA2B2ABB2724399
:1058F0007343801A9941220C7243130C1204801ACC
:10590000994102000B000137001BA941F9D2781E12
:105910000021F0BD0C277F1BFE4077467F0BAF4078
:10592000FF19E0E700245D1C07D0144F7D6639663F
:10593000FFE7FFE7FFE7FFE73C6F95B29EB26543E5
:105940006643401BB141150C1E0C6543664336048B
:105950002F0C3E432D04401BB141994204D202005A
:105960000B0020000021F0BD01D19042F7D3801A36
:10597000994101349942F2D3F6E70000000000D0CB
:10598000FFFFFFFF48404140484018B41B4B5B6895
:10599000FC46019308BD04DFF75C001018B4174BF8
:1059A0001B68FC46019308BD00DF015D00109446B2
:1059B000134A926F920809D2624618B40F4BDB6803
:1059C000FC46019308BD0CDFB95F00100C4AF0B52E
:1059D000146E556E576F166F6246FFF7EEFF084A5A
:1059E0001466556657671667F0BD18B4034B9B687D
:1059F000FC46019308BD08DF5D5E0010F424002022
:105A0000000000D0FFB550404240504059404B404C
:105A1000594000E0FFB5154F4C00640D03D0BC4267
:105A200004D10C0314D80020090D09055C00640D95
:105A300003D0BC4204D11C030AD800221B0D1B0555
:105A400001264B4009D44B4003D58B4200D1824202
:105A5000FFBD9942FCD19042FFBD0B43DB180343CD
:105A60001343F5D0C9434918FFBD0000FF070000EC
:105A700000B5FFF7CFFF01D0002000BD012000BD21
:105A800000B5FFF7C7FF804100BDC04600B5FFF776
:105A9000C1FF01D9002000BD012000BD00B5FFF706
:105AA000B1FF01D9002000BD012000BD00B5FFF706
:105AB000A9FF804100BD012040054A00121804D80A
:105AC0005A00121801D800207047012070470020AA
:105AD000704700000021002805D17047C1174840D9
